:0200000480007A
:10000000370A0020930030001301101B1311010167
:10001000B3E0200023201A0093000000130A000020
:1000200037E10180EF00C007730000006F0000009F
:10003000370700208327470093F71700E39C07FE4C
:100040002326A70067800000834605006388060218
:10005000370700208327470093F71700E39C07FE2C
:100060008327470093F71700E39C07FE2326D7005A
:100070008346150013051500E39E06FC678000000B
:100080003306C50093F5F50F930705006308C50017
:1000900093871700A38FB7FEE31CF6FE678000006E
:1000A000130101FA232E8104232C9104232A210514
:1000B00023283105232641052324510523226105E8
:1000C00023207105232E8103232C9103232AA103CE
:1000D0002328B103370700208327470093F7170031
:1000E000E39C07FE9307A0002326F70037070020B4
:1000F0008327470093F71700E39C07FEB71700809C
:10010000938747BE2326F1029307D0002326F700EA
:10011000930740062324F102B7070080938A4750D3
:10012000B7170000938707802322F102B7070080EA
:100130009387474F930F000013090000930200407C
:1001400093040040130A4001930CE004370CB0FF05
:10015000232AF100B7093000370D002093870A00E9
:10016000130700022380E7000327C10293871700CB
:10017000E398E7FE930707001307F0072380E700E3
:1001800037170080938717001307472CE396E7FE85
:10019000B30720412326F100B30790402328F10044
:1001A0009307A0052320F10293070040232E0100AE
:1001B000232CF1000327C10103268101832741027B
:1001C000338BE402930E4014330FF6009306004085
:1001D00093070000B303E90213740BC03707500004
:1001E000135BAB403304E400B38BC20293D3A34050
:1001F00093DBAB40338EE703139627003306F600FC
:10020000139726003307D700135686403386C6401F
:10021000135787403307F700938EFEFF9358AE4085
:10022000338898023383E6031358A8403388034188
:100230001353A34033055302B305F803B3882803CF
:10024000B385A50013954500B305B540B388880074
:10025000B3C51503938DB5003305C602636EBA0BA3
:100260009385C500939D2500B385BD00B38D88019E
:100270009395450093DDFD40939D8D0193DD8D4168
:100280003303F303330858023308034113134800C0
:100290003303034113131300B34813031388880275
:1002A000B385050193887802B385BA0063E61C071D
:1002B0009397B700330EFE408387056E135EAE4002
:1002C00063DCFD04832701010328C100B386DB0240
:1002D0002380B56FB307FE0293D7A740B38777009B
:1002E000330E0E03B387F703B307FE40B387D7403F
:1002F00093D7A740B387674193D7774093C6F7FF5B
:1003000093D6F641B3F7D70083264101B387F600B1
:1003100083C707002380F500B306E702B387A9402F
:10032000B387D74093D7B740B306F602B307F702B7
:1003300093D6A64093D7A740E39E0EEA8326C10139
:1003400003268101139736003307D7009317360031
:10035000135777403307E640B387C70003260102EF
:1003600093D77740B387D700B306E7029305F6FF2C
:100370002320B1023386F702B386D940B386C64044
:1003800093D6B6403307D702B387D7021357A74097
:10039000232CE10093D7A740232EF100E39C05E036
:1003A00093860A0013070000930500051306106EDC
:1003B000B367B702638E070E03C5060083274D009F
:1003C00093F71700E39C07FE2326AD0013071700E1
:1003D00093861600E31EC7FC93972F00B387F7019F
:1003E000139624009396220093D7874033069600F5
:1003F00013172900B3865600B38257008327810262
:10040000330727011356764093D686403309C940F7
:10041000B38FDF4013577740B30497009385F7FFFE
:10042000330729032324B102B387FF033387E9404D
:1004300033869402B387F940B38652023307C7402C
:100440001357B740B387D74093D7B7403309E90272
:10045000B384E4021359A940B38FFF0293D4A4409C
:10046000B382F20293DFAF4093D2A240E39805CE6D
:100470000324C1058324810503294105832901053E
:10048000032AC104832A8104032B4104832B010422
:10049000032CC103832C8103032D4103832D01030E
:1004A000370500801305854E130101066FF0DFB993
:1004B00083274D0093F71700E39C07FE9307A000E6
:1004C0002326FD0083274D0093F71700E39C07FECA
:1004D0009307D0002326FD0013071700938616000C
:0804E000E318C7EC6FF05FEFB9
:1004E8000A0D42697474692E000000002E2C2D7EBE
:0904F8003A3B3D212A2324400077
:040000058000000077
:00000001FF
