:0200000480007A
:1000000037910180EF008001EF20003D37A0000014
:100010006F000000130510006F20C01C130101FFCA
:100020009305101B3705002023261100232481008F
:10003000EF20401337C40000930504353705003026
:10004000EF200002B7050080372500809385450129
:100050001305C519EF10405213050435EF20800930
:10006000732510C0EF20C0278320C1000324810026
:10007000130500001301010167800000130101FE58
:10008000232C8100232A9100232E11008347050091
:10009000232201002324010023160100130405007C
:1000A00093840600638E0700638405041305000231
:1000B0006386A7028347140013041400E39A07FE23
:1000C00013050000638C05088320C101032481010E
:1000D000832441011301010267800000834714005B
:1000E0009385F5FF13041400E38C07FCE39205FCF1
:1000F00093063006630AD606930730076304F608B2
:100100009307400613050000E310F6FC03470400C4
:1001100013054100930705009306E100630E0700F5
:10012000130414002380E70003470400938717009B
:1001300063040700E396D7FEEF10501B23A0A40032
:10014000034504008320C10103248101832441016C
:100150001335150013010102678000009306300675
:1001600093070000E31AD6F82380F4008320C1012E
:1001700003248101832441013325E000130101029E
:10018000678000008346040093070400638406022E
:10019000631607006F000002630E86009387170046
:1001A0002380D40083C607003386E740938414007D
:1001B000E39406FE2380040003C507008320C101E9
:1001C0000324810183244101133515001301010229
:1001D00067800000130101FA232C8104373400806A
:1001E000232A9104232821052326310523244105B0
:1001F0002322510523206105232E7103232C810323
:10020000232A91032328A1032326B103232E1104BB
:10021000372A0080130C848CB7290080372900808E
:10022000B7240080B72A0080372B0080B72B0080CE
:10023000B72C0080372D0080B72D00806F0080051F
:10024000372500801305C543EF10C02737250080F0
:1002500013050546EF100027372500801305C54616
:10026000EF104026372500801305C547EF10802585
:10027000372500801305C548EF10C02437250080BE
:100280001305054AEF100024372500801305054F9C
:10029000EF1040231305CA40EF10C0229305848C51
:1002A00013850941EF10803A9305848C1305494169
:1002B000EF10402113064000938544421305848CBF
:1002C000EF1040626300050C1306400093854A431B
:1002D0001305848CEF100061E30405F6130640005B
:1002E00093058B4B1305848CEF10C05F631C0500D6
:1002F000F32510C0372500801305054CEF10801C36
:100300006FF09FF8130650009385CB4C1305848C37
:10031000EF10405D63160500EF00802C6FF0DFF6F4
:100320001306500093854C4D1305848CEF10805BB1
:10033000631C050883470C00232A0100232C0100BD
:10034000231E01006388070213070C001306000236
:100350006F0080006386C60E1307170093860700A0
:1003600083470700E39807FE930700021305410146
:10037000638AF60E372500801305454FEF10801471
:100380006FF09FF0032481058320C105832441057C
:10039000032901058329C104032A8104832A410416
:1003A000032B0104832BC103032C8103832C410302
:1003B000032D0103832DC102372500801305C5429B
:1003C000130101066F1000101306900093050D50E5
:1003D0001305848CEF100051630A050C130690007E
:1003E00093858D531305848CEF10C04F6318050A55
:1003F00083470C00232A0100232C0100231E010047
:100400006388070213070C00130600026F008000C8
:100410006386C616130717009386070083470700F5
:10042000E39807FE9307000213054101638AF6165D
:10043000B72700801385C755EF10C0086FF0DFE4C1
:1004400013054101930605001306E1011307170088
:100450002380F60083470700938616006384070015
:10046000E316D6FE2326E100EF1040680327C10003
:100470009305050083470700E39E07EE2326A100AE
:10048000372500801305C54DEF10C0038325C1003B
:1004900013850500EF00002E6FF01FDFB7270080E7
:1004A00013850757EF1000026FF01FDE83470C0023
:1004B000232A0100232C0100231E0100638207026E
:1004C00013070C0093062000130600026386C70280
:1004D0008347170013071700E39A07FE638E060E83
:1004E000B717000093877745B72500002326F10052
:1004F000938505586F008005834717009386F6FFA4
:1005000013071700E38C07FCE39206FC1305410177
:10051000930605001306E101130717002380F60078
:10052000834707009386160063840700E396C6FEA0
:10053000EF10C05BB7F7FA0293870708B3C7A702AB
:10054000930505009387F7FF2326F10037250080E8
:100550001305C550EF0010778325C10037250080B3
:1005600013054552EF001076EF10904EE30E05FE96
:100570000325C100EF1090406FF01FD1130541011A
:10058000930605001306E101130717002380F60008
:10059000834707009386160063840700E316D6FEA0
:1005A0002326E100EF1080540327C10093050500C6
:1005B00083470700E39E07E62326A1003725008036
:1005C00013054554EF0010708325C1001385050005
:1005D000EF0080126FF05FCB130541016FF05FF504
:1005E000130101FC232E1102232C8102232A9102E4
:1005F00023282103232631032324410323225103EB
:1006000023206103232E7101732510C0EF10504D7C
:10061000372500801305855AEF00D06A372A0080FD
:10062000B7290080B72A008037290080B72B0080C7
:10063000372B00809305803E13051000EF105054B7
:1006400013040500630C0506930400006F004001CD
:10065000638487086344F4001385CA62EF009066E0
:1006600013054A5CEF0010669305C1001385095D10
:10067000EF00D07D8327C1001305496193841400E6
:10068000E39807FC3725008013054564EF0090636D
:100690008320C1030324810383244103032901032D
:1006A0008329C102032A8102832A4102032B01020A
:1006B000832BC1011301010467800000732510C062
:1006C000EF1010429305803E13051000EF10504BC1
:1006D000130405006FF05FF79385040013854B5DED
:1006E000EF00505E13054B5FEF00D05D8327C10024
:1006F000E39207F46FF01FF963080506130101FE8A
:10070000232C8100232A910023263101232E11005E
:10071000232821011304050093041000930700000F
:10072000B729008093850400138549651389040067
:100730001304F4FFB384F400EF00D05893070900CA
:10074000E31204FE032481018320C10183244101BB
:10075000032901018329C100372500801305054FB6
:10076000130101026F001056372500801305054F55
:100770006F005055130101FA930705001305A000FF
:10078000232C8104232E1104232A910423282105DC
:100790002326310523244105232251052320610509
:1007A000232E7103232C8103232A91032328A103E1
:1007B0002326B10313840700232CF100EF10101E31
:1007C0001305D000EF10901D635E8036B7370080B0
:1007D000138A0794B737008093870702232EF1000E
:1007E000B7170000938707802328F100B727008000
:1007F00093874767232A01001304000093040040F5
:100800009309000013090040930AE0042320F1003B
:10081000B727008013854766EF10101AB7270080AE
:100820001385C766EF105019B737008013850794FA
:100830001306006E93050002EF10C05B0325C10193
:100840001306006E9305F007EF10C05A9307A0053A
:100850002326F10093070040330D3041B30C2041B3
:100860002322F1002324010093004001370BB0FF45
:10087000B70330008327810003274100832601014D
:10088000B30BF902930E4014330FD70093080040C6
:1008900013030000B38FF90293F20BC0B7075000A7
:1008A00093DBAB40B382F200338CE40293DFAF40C2
:1008B000135CAC40330EE30393162300B38666004B
:1008C00093972800B387170193D68640B386D84004
:1008D00093D78740B3876700938EFEFF1355AE40D2
:1008E000B305A9023388E80393D5A540B385BF407B
:1008F0001358A840338604033307B4023385A90292
:100900003307C700131647003307E6403305550089
:100910003347A702930DB7003386D60263EAB00BC4
:100920001307C700931D27003387ED00B30D650142
:100930001317470093DDFD40939D8D0193DD8D419D
:1009400033080403B385B402B305B84013984500D7
:100950003308B840131818003345A80293058502E0
:100960003307B700130575023307EA0063E2AA06EE
:100970008305076E1313B300330E6E40135EAE4053
:1009800063D8BD04B3059E032300B76F93D5A5407C
:10099000B385F501B3858502330EAE03B3081C039E
:1009A000330EBE40B3051E4193D5A540B3857541B6
:1009B00093D5754013C5F5FF1355F541B3F5A50063
:1009C00003250100B305B50083C505002300B7006A
:1009D0003387F7023386C3403306E6401356B640EA
:1009E000B386C6023386C70293D8A6401353A640E7
:1009F000E3920EEC03278100032641009316370093
:100A0000B386E6009317360093D67640B306D640F9
:100A1000B387C7000326C10093D77740B387E700A9
:100A20003387D6029305F6FF2326B1003386F702FB
:100A30003387E3403307C7401357B740B387E70214
:100A4000B386E60293D7A7402324F10013D7A6402C
:100A50002322E100E39005E2930C0A00130C00004E
:100A6000930B0005130B106E6F00800103C50C0083
:100A7000130C1C00938C1C00EF10407263046C0379
:100A8000B3677C031305A000E39207FEEF1000712B
:100A90001305D000130C1C00EF104070938C1C0049
:100AA000E3106CFF93962400B3869600131629007A
:100AB0009317240093D68640330626011397290006
:100AC000B38787003304D4408326410133073701BD
:100AD00013567640B389C94013577740330927012D
:100AE000938516003387390393D78740B3849700E3
:100AF000B7073000232AB100B30684023387E740EA
:100B000033062903B387D740B38694023307C7401F
:100B10001357B740B387D74093D7B7403304F40295
:100B2000B384F402832781011354A440B389E902FA
:100B300093D4A4403309E90293D9A9401359A94099
:100B4000E398B7CC032481058320C10583244105A4
:100B5000032901058329C104032A8104832A41044E
:100B6000032B0104832BC103032C8103832C41033A
:100B7000032D0103832DC1023725008013058565F0
:100B8000130101066F1040633737008083274770D9
:100B9000938617002322D7702380A700A380070025
:100BA00067800000130101FDB73800802322910205
:100BB0002326110223248102232021039307050009
:100BC000930406001307F1019388C888B3F6B702AF
:100BD000130407001307F7FF13880700B386D80034
:100BE00003C50600B3D7B702A300A700E370B8FEA1
:100BF00013041400130901026F00C0000345040030
:100C000013041400E7800400E31A24FF8320C102C8
:100C100003248102832441020329010213010103F9
:100C200067800000D30705F0130101FD2320210395
:100C3000539907C023248102232E3101537709D011
:100C40002326110223229102D3F7E708232C410126
:100C500093890500538407E0631C0906130500030C
:100C6000E78005001305E002E7800900B737008040
:100C700003AA478C9304600053070AF0D30704F0DB
:100C80009384F4FFD3F7E710539907C0538407E028
:100C9000130509031375F50FE7800900530704F0E6
:100CA000D37709D0D377F708538407E0E39604FCA1
:100CB0008320C1020324810283244102032901020B
:100CC0008329C101032A8101130101036780000008
:100CD000634A090493070000130A41001307A000A8
:100CE0003365E9029384070093871700B306FA007F
:100CF0003349E902130505031375F50FA38FA6FE0B
:100D0000E31009FEB3049A006F00C00003C5F4FFAE
:100D100093840700E78009009387F4FFE3189AFEA5
:100D20006FF05FF41305D002E7800500330920411E
:100D30006FF05FFA130101F92324810523261106C0
:100D4000232481062322910623202107232E310507
:100D5000232C4105232A51052328610523267105EB
:100D6000232291052320A105232EB103130C050096
:100D7000034505002322D10063080510B72A00802F
:100D800093870A6A373A0080938905009304060026
:100D90002320F100130BF102130ACA886F0000012F
:100DA000E780040003450C006300050E13075002A2
:100DB000130C1C00E316E5FE03450C00130730027C
:100DC00093080000930A0000130900009306D00264
:100DD0001306B002130800026302E5026306D5029F
:100DE000630AC502631E050363940A00930A0002A6
:100DF000130C1C0003450C00E312E5FE93081000E1
:100E0000130C1C006FF01FFF13091000130C1C00C3
:100E10006FF05FFE930AB002130C1C006FF09FFD91
:100E200013070003130D00026318E50003451C00BF
:100E3000130D0003130C1C00130705FD1376F70FA9
:100E40009306900063F4C60A1307A002930D0000F6
:100E50006306E50C1307E0026306E5061307C00608
:100E60006316E50003450C00130C1C001307A007D4
:100E7000636AA70E83270100131725003307F700C5
:100E800003270700670007008320C10603248106AB
:100E900083244106032901068329C105032A81050C
:100EA000832A4105032B0105832BC104032C8104F4
:100EB000832C4104032D0104832DC1031301010779
:100EC0006780000003451C001306900013071C00F8
:100ED000930605FD93F6F60F6376D6069306A002F9
:100EE0006308D508130C07006FF05FF7930D00003F
:100EF0001306900003451C0013942D003304B40125
:100F000013141400B30D8700130705FD9376F70F34
:100F1000130C1C00E370D6FE6FF0DFF303A709008B
:100F2000130C1C00832D07001307470023A0E900C2
:100F300003450C00E3D00DF213491900B30DB04185
:100F40006FF05FF193069000034517001307170039
:100F5000930705FD93F7F70FE3F8F6FE130C070070
:100F60006FF0DFEFE7800400130C1C006FF09FE3CD
:100F700003A70900130C2C001307470023A0E90066
:100F800003450C006FF09FED03A7090093060B00CB
:100F900013068700832C070023A0C900032D4700F8
:100FA00013870C0003490D0033762703938D060049
:100FB0009386F6FF930507003306CA000345060033
:100FC00033572703A380A600E3F025FF938D1D0070
:100FD000130401036F00C00003C50D00938D1D00B5
:100FE000E7800400E39A8DFE93071C002324F100A0
:100FF000639E0C28032C81006FF0DFDA130E0000D3
:101000001308800003A70900930A00008326070045
:101010001307470023A0E900639A0612930B000010
:1010200013050B00330ECA0133F60603930C0500BB
:101030001305F5FF938806003306CE0003464601EC
:10104000B3D60603A300C500E3F008FF3305AB40A9
:101050003384AD40B33650013304D44063880B0071
:1010600013850B00EF00007F3304A44093060002B9
:10107000630ADD0863860A0013850A00E78004001E
:10108000638E0B0003C50B00630A0500938B1B00E6
:10109000E780040003C50B00E31A05FE9306000376
:1010A000631ADD006F00801B03C50C00938C1C00CD
:1010B000E780040093070103E398FCFEE30609EAD6
:1010C0001304F4FFE34204EA1309F0FF1304F4FFEE
:1010D00013050002E7800400E31A24FF130C1C0030
:1010E0006FF05FCC13070003A307E1029306000231
:1010F0001384FDFF6310DD16930CF102930A0000C8
:10110000930B0000E31809F61304F4FFE34404F61C
:10111000930DF0FF1304F4FF13050002E7800400B1
:10112000E31AB4FF6FF01FF503284100130E00000F
:1011300003A70900832607001307470023A0E9003F
:10114000E3DC06ECB306D040930AD002E38808EC57
:10115000130780006304E81213070001930B0000DB
:10116000E310E8EC6F004007130E00001308A00026
:101170006FF01FFC03284100130E00006FF09FE882
:10118000130E00001308A0006FF0DFE7130E00013C
:10119000130800016FF01FE703A7090093850400FF
:1011A000130C1C00032507001307470023A0E900C8
:1011B000EFF05FA76FF01FBF03A7090083260700AA
:1011C0001307470023A0E900E38E06F0130E00008A
:1011D00013080001930A0000B7270080938B8768EB
:1011E0006FF01FE403A70900130C1C0093064700CF
:1011F00023A0D900032407006302042463980D226E
:1012000003450400E30005BA13041400E78004005A
:1012100003450400E31A05FEE3860DB8E30409B8AC
:10122000130400001304140013050002E7800400F7
:10123000E34AB4FF6FF01FB703A70900130C1C00AB
:10124000034507001307470023A0E900E7800400D7
:101250006FF05FB5930CF102E318EDE41304F4FFB3
:10126000E34A04E4130DF0FF1304F4FF1305000335
:10127000E7800400E31AA4FF6FF0DFE3B7270080E4
:1012800013088000938B47686FF09FD903441D00BB
:10129000930D2D00E30004D613071D001306000074
:1012A000930B2004130D0002930A01036F00C00189
:1012B00003C50D0013870D006366AD06930D17007F
:1012C00013040500630E051883460C00639676012F
:1012D0009307100233848740834617006376DD0846
:1012E0001307F4FF930710003397E7003377970154
:1012F000E30007FC630606121305C002E780040042
:1013000003C50D00637AAD00938D1D00E7800400D6
:1013100003C50D00E36AADFE13870D001306100030
:101320006FF0DFF903C51D0013871D00E378ADF8EA
:10133000930D070003C51D0013871D00E370ADF872
:101340006FF01FFF130E0001130800016FF05FDE46
:10135000130E0000130800016FF0DFCA130E000027
:10136000130800016FF0DFDC2326E1006302060EA4
:101370001305C002E78004000327C100834717005C
:1013800083460C00930D27002326F1006396760117
:10139000B307FD402326F10003452700637AAD0023
:1013A000938D1D00E780040003C50D00E36AADFEC8
:1013B0008327C100930620003307F4403397E600EB
:1013C0009386F7FFB3D6DC001307F7FF3377D70018
:1013D00093060B0033762703138406009386F6FFEB
:1013E000930507003306CA00034506003357270359
:1013F000A380A600E3F025FF130414006F00C000D3
:101400000345040013041400E7800400E31A54FFAA
:1014100003C50D0013870D00130610006FF01FEABF
:101420001305C003E78004006FF09FED6302090419
:1014300003450400E31A05DC6FF09FDEE3840D969C
:10144000630A0906B7270080138407526FF05FFE16
:101450001305C003E78004000327C1006FF01FF2EB
:10146000032C8100E30006941305E0036FF05F9303
:1014700003450400130D0000630C0500130D1D004F
:101480003307A40103470700E31A07FEE35EBDD755
:10149000130D1D0013050002E7800400E352BDD7C1
:1014A000130D1D0013050002E7800400E342BDFF99
:1014B0006FF01FD5B7270080130D0000138407526B
:1014C0006FF01FFD130101FC2324C1023736008099
:1014D000032606712322B1022326D102232AF10218
:1014E0009305C100930741029306A000232E11002B
:1014F0002328E102232C0103232E11032326F100CC
:10150000EFF05F838320C1011301010467800000B5
:10151000130101FC2324C102232AF10237160080A3
:1015200093078102232C81002326D1021304050096
:101530002326F10013850500B73700809305C1000D
:1015400093060001130686B8232E11002328E1021A
:10155000232C0103232E110323A28770EFF08FFDAC
:1015600013050400EF00002F8320C1010324810133
:101570001301010467800000B737008023A8A7701B
:10158000B737008023A6B77067800000130101FF02
:101590002324810023261100373400808327C47060
:1015A000E7800700E30C05FE8320C10003248100CF
:1015B0001301010167800000130575FF1375F50F16
:1015C0009307700163ECA700B7078000938737018A
:1015D00033D5A700137515006780000013050000C0
:1015E00067800000130535FF133515006780000084
:1015F000130505FD67800000834605009307D002B0
:10160000930510006398F600834615009305F0FFDC
:101610001305150013070000638606021305150065
:1016200093172700138606FD83460500B387E7005E
:10163000939717003307F600E39206FE3305B702CF
:10164000678000001305000067800000130101F9A6
:101650002320E1062326110423248104232291045C
:1016600023202105232E3103232C4103232A510358
:10167000232861032326710323248103232AB10431
:10168000232CC104232ED1042322F1062324010795
:101690002326110783470500130741052324E10092
:1016A0006384070437098000130715009304500270
:1016B000373400801309390193094001639097067C
:1016C0008347150013073007130A2500638CE704CE
:1016D0001307400613050A006386E70883470500E1
:1016E00013071500E39C07FC8320C1040324810435
:1016F00083244104032901048329C103032A8103AC
:10170000832A4103032B0103832BC102032C810293
:10171000130500001301010767800000130507008F
:101720006FF0DFFB83278100130BD00083AA070033
:10173000138747002324E1008327C470E780070054
:10174000E30C05FE1375F50F630865012380AA00FD
:10175000938A1A006FF05FFE23800A0013050A00C7
:101760006FF0DFF783278100130BC100930A00009D
:1017700003AC0700938747002324F100930B70010B
:101780008327C470E7800700E30C05FE1375F50F8F
:10179000930775FF93F7F70F3357F9001377170087
:1017A00063E0FB06630E070493070102B38A570147
:1017B00023860AFE8346C1009307D002130510005A
:1017C0001306C1006388F60413070000638C060447
:1017D0001306160093172700938506FD834606001F
:1017E000B387E700939717003387F500E39206FE6F
:1017F000B307A7022320FC0013050A006FF01FEEB9
:101800002300AB00938A1A00130B1B00E39A3AF7EC
:101810006FF09FF98346D1001305F0FF1306D10046
:101820006FF09FFA930700006FF0DFFC1307F5FBE2
:101830009307900163E4E700130505026780000049
:101840001307F5F99307900163E4E700130505FE1C
:10185000678000006302050283470500638E07006E
:101860009307050003C7170093871700E31C07FEC3
:101870003385A740678000001305000067800000E3
:10188000638A050263080502834705006384070233
:10189000B305B500930705006F0080006388B700AB
:1018A00003C7170093871700E31A07FE3385A74085
:1018B0006780000013050000678000008347050073
:1018C00003C70500631CF700130515009385150079
:1018D000E39607FE13050000678000003385E740AC
:1018E00067800000630806023306C5006F00C00071
:1018F000638207026300C5028347050003C7050032
:101900001305150093851500E384E7FE3385E74052
:101910006780000013050000678000001306900137
:1019200083470500130515001387F7FB938607000F
:101930006364E6009386070203C7050093851500DC
:101940001308F7FB63640601130707026318D70047
:10195000E39807FC13050000678000003385E6402C
:101960006780000063020604B388C5001306900177
:101970008347050093851500130515001387F7FBB2
:10198000938607006364E6009386070203C7F5FFAA
:101990001308F7FB6364060113070702631AD700F5
:1019A00063840700E39615FD1305000067800000BF
:1019B0003385E640678000008347050063860702A1
:1019C0009307050003C7170093871700E31C07FE62
:1019D00003C705009387170093851500A38FE7FEC3
:1019E000E31807FE6780000003C7050093070500A2
:1019F00093871700A38FE7FE93851500E31A07FC72
:101A00006FF05FFE1307050083460700930707008A
:101A100013071700E39A06FE3386C500638EC500E0
:101A200003C705009387170093851500A38FE7FE72
:101A3000E31607FE67800000238007006780000030
:101A40009307050003C705009387170093851500CA
:101A5000A38FE7FEE31807FE678000006304060417
:101A6000930705006F008000630E060203C70500A0
:101A700093860700130806002380E700938515006E
:101A8000938717001306F6FFE31007FE630C0600AA
:101A9000B386060193871700A38F07FEE39CD7FE4A
:101AA000678000006780000003470500930705007A
:101AB00013050000630E07006314B70013850700C9
:101AC00003C7170093871700E31807FE678000001D
:101AD00067800000834705006388B7001305150081
:101AE000E39A07FE13050000678000000346050027
:101AF00093079000930606FD13F7F60F63ECE702D9
:101B00001307000093059000034615009317270064
:101B1000B387E700939717003387F600930606FD17
:101B200093F7F60F13051500E3F0F5FE1305070014
:101B300067800000130500006780000083470500F0
:101B400093080500638807081307050083471700FB
:101B500013071700E39C07FE638EE80613060000D8
:101B60001305000013039000130E50006F000001D6
:101B70003305D500130646006386E8048347F7FF64
:101B80001307F7FF938607FD9385F7FB13F8F60F0E
:101B900093F5F50FB396C600E37C03FD138897FC1D
:101BA0009386F7F9938797FA3318C80093F6F60FE0
:101BB000B397C700636ABE003305050113064600EC
:101BC000E39EE8FA678000006368DE003305F500F5
:101BD0006FF05FFA1305000067800000630C0504D6
:101BE00003460500630806049307050003C71700B2
:101BF00093871700E31C07FEB387A7409387F7FF7F
:101C0000938607006358F0023307F5006F008000E9
:101C100003460500034807009386F6FFB385D740C7
:101C2000230005012300C700130515001307F7FF64
:101C3000E3C0D5FE678000009387F5FF635AF0028A
:101C4000B307F5001307000083C60700034605002D
:101C5000130717002300D5009346F7FF2380C70022
:101C6000B386B600130515009387F7FFE34ED7FC44
:101C7000678000001357F541130101FFB347A70028
:101C800023248100B387E740232611001384050035
:101C9000130700001308A00013039000B3E6070326
:101CA00093050700130717003306E4009388070025
:101CB00093860603A30FD6FEB3C70703E34013FFC3
:101CC000635A0500938525009307D0022300F60090
:101CD0003306B4001305040023000600EFF01FF0E4
:101CE0008320C100130504000324810013010101B6
:101CF00067800000372800801306C0001308C868FA
:101D00009308F0009377F500B307F80083C6070047
:101D1000130706003386C500930705002300D6008D
:101D2000135545001306F7FFE3EEF8FC1386D500C4
:101D3000938705003306E6406F00800083C60600E7
:101D40002380D70093871700B386E700E318F6FED9
:101D5000B385E540A3860500678000009306000078
:101D6000930E9000130EF0006F00C0009306080061
:101D700013050700138816001373F500B3870501D8
:101D80009308730363C46E0093080303A38F17FFC4
:101D900013574500E36CAEFC6358C8043387C50095
:101DA000930600032380D70093871700E31CF7FEF8
:101DB0009306F6FF230007003387D5009307000042
:101DC0000345070003C60500938717002380A5007D
:101DD0002300C7003386F640938515001307F7FFED
:101DE000E3C0C7FE6780000023800700E39606FC7F
:101DF000678000003306C50093F5F50F93070500D3
:101E00006308C50093871700A38FB7FEE31CF6FE97
:101E100067800000630A06046388A5043367B50081
:101E200013773700930705006302070463F2F50296
:101E30003387C500B387C7008346F7FF1307F7FF53
:101E40009387F7FF2380D700E318B7FE6780000071
:101E50003386C50003C705009385150093871700D7
:101E6000A38FE7FEE398C5FE6780000013073000EC
:101E7000E37EC7FA135726001317270063F8A5025D
:101E8000B387E5003307E50083A6C7FF9387C7FF45
:101E90001307C7FF2320D700E398F5FE1377C6FF8B
:101EA0003388E500B307E5006F0000023388E500E2
:101EB00083A60500938545009387470023AED7FE90
:101EC000E39805FFB307E50013763600E30E06F846
:101ED00093050800E3FEF5F66FF09FF593074000C9
:101EE00063FCC7023367B500137737009306F6FF2C
:101EF00093070500630A070293861600B386D7008E
:101F000003C705009387170093851500A38FE7FE8D
:101F1000E398D7FE67800000930705009306F6FF5D
:101F2000E31C06FC678000009308C6FF93F8C8FF17
:101F300093884800B3071501938605001307050031
:101F400003A806001307470093864600232E07FFC9
:101F5000E318F7FEB3851501137636006FF01FFC0A
:101F60001376F60F3387D500639606006F000002E4
:101F7000630EB70083C70500130515009385150090
:101F8000A30FF5FEE396C7FE67800000130500006F
:101F90006780000063040604930710008346050071
:101FA00003C8050013070500631AF6006F008002DE
:101FB0008346070003C80500638E07001307170058
:101FC0009347F7FFB387C70093851500B307F50064
:101FD000E38006FF3385064167800000130500009B
:101FE00067800000630206043388C50093069001F1
:101FF0008347050093851500130515001387F7FB2C
:1020000063E4E6009387070203C7F5FF1306F7FBB7
:1020100063E4C6001307070263840501E30AF7FCC3
:102020003385E740678000001305000067800000EB
:1020300093070500630206023306C5006F008000A7
:10204000630CF60003C7070013850700938717008A
:10205000E318B7FE678000001305000067800000EA
:10206000B737008023ACA770B737008023AAB770BA
:1020700067800000B737008083A7877123A0A7007F
:1020800067800000B737008083A7877123A2A7006D
:1020900067800000B737008083A7877103A507001A
:1020A00067800000B737008083A7877103A54700CA
:1020B00067800000B737008083A7877123A4A7003B
:1020C00067800000B737008083A7877123A6A70029
:1020D00067800000B737008083A7877103A587005A
:1020E00067800000B737008083A7877103A5C7000A
:1020F00067800000B737008083A7877123A8A700F7
:1021000067800000B737008083A7877123AAA700E4
:1021100067800000B737008083A7877103A5070198
:1021200067800000B737008083A7877103A5470148
:1021300067800000B737008003A78771B73700803A
:1021400023200700232207008326070083A7477167
:102150003385A70283270700B387D740E3ECA7FEA8
:10216000678000009395050193853500B73700809F
:1021700023AEA7702320B50067800000B73700802A
:1021800003A7C771131505018327070093F73700CD
:102190003365F5002320A70067800000B737008073
:1021A00003A7C7718327470093F71700E39C07FE37
:1021B0002326A70067800000B737008003A7C771F8
:1021C000834605008327470093F71700E39C07FE2B
:1021D0002326D7008347050013051500E39207FE69
:1021E00067800000B737008003A7C771930605001A
:1021F0008327470093D7370093F71700639C0702A4
:10220000032687001376F60F130506006386060281
:10221000930766FF63820702930736FF638E07000A
:102220008327470093F71700E39C07FE2326C70088
:10223000678000001305000067800000B73700804A
:1022400083A7C77103A547001375150067800000B9
:10225000B737008083A7C77103A547001355150042
:102260001375150067800000B737008083A7C7711A
:1022700003A547001355250013751500678000005E
:10228000B737008083A7C77103A5470013553500F2
:1022900013751500678000003737008083270770AB
:1022A00003250770832507700326077093D717004F
:1022B00093D5350083260770B3C7B700B3C7A7000F
:1022C0001356C600B3C7C70093D616009397F701FD
:1022D000B3E7D7002320F77003250770678000005D
:1022E000B737008023A0A7706780000037370080D1
:1022F000832707700325077083250770032607705F
:1023000093D7170093D5350083260770B3C7B7005E
:10231000B3C7A7001356C600B3C7C70093D61600AD
:102320009397F701B3E7D7002320F77003250770D1
:102330006780000037370080832707700328077005
:10234000832507700326077093D7170093D53500B0
:1023500083260770B3C7B700B3C707011356C6007B
:10236000B3C7C70093D616009397F701B3E7D7001A
:102370002320F7708327077033F5A70267800000DA
:10238000373700808327077083280770032807707A
:102390000326077093D71700135838008326077059
:1023A000B3C70701B3C717011356C600B3C7C700A9
:1023B00093D616009397F701B3E7D7002320F77061
:1023C00083270770B385A54093851500B3F5B70241
:0823D0003385A50067800000C1
:1023D80037250080130101FF1305855823261100B6
:1023E800EFF01FDD372500801305C559EFF05FDCDE
:1023F800EFD0DFDD8320C1001305000013010101C8
:0424080067800000E9
:10240C0024200000257300000A636F6D6D616E64FB
:10241C003A2025730A0000006578697400000000FA
:10242C006279652E2E0A000068656C700000000051
:10243C000A0D524953432D562078333220494D46CC
:10244C0041420A0D4628432920323032340A0D0A03
:10245C000D000000636F6D6D616E64733A0A0D00C0
:10246C000968656C70090979617264696D0A0D00FF
:10247C000965786974090963696B69730A0D000051
:10248C0009646F6E75740909646F6E7574206369E5
:10249C007A0A0D000967616D653109097461686D0F
:1024AC00696E206F79756E750A0D000074696D6523
:1024BC000000000074696D653A2025640A0D000067
:1024CC0067616D6531000000646F6E75740000000B
:1024DC0025642061646574206672616D6520C3BCDF
:1024EC007265742E0A0D00006B61C3A720667261C1
:1024FC006D653F0073657420626175646500000052
:10250C006E65772062617564655F72617465203DEC
:10251C002025640A000000006E65772062617564F6
:10252C00655F646976203D2025640A006669626FE8
:10253C006E6163636900000025642061646574202A
:10254C007361796920C3BC7265742E0A0D0000009A
:10255C006B61C3A720736179C4B1206C617A696D1A
:10256C003F00000074616EC4B16D6164C4B16D2034
:10257C0062656E2062756E752E0A000052495343D7
:10258C002D562058333220494D4641420A0D000049
:10259C004628432920323032340A0D0043696B69D6
:1025AC0073206963696E203020676972696E697A7D
:1025BC002E0A0D0A0D00000073617969206769729B
:1025CC003A200000256400000A0D25642064656E25
:1025DC00656D6520736F6E7261206B617A616E64DC
:1025EC00696E697A2E0A0D004F79756E2074656BD1
:1025FC00726172206261736C6174696C69796F725B
:10260C002E2E2E0A0D000000092D20646168612019
:10261C006B7563756B206C757466656E0A0D0000C6
:10262C00092D206461686120627579756B206C7569
:10263C007466656E0A0D00000A0D656C7665646142
:10264C00203A2F0A0D000000256420000A0D426973
:10265C007474692E000000001B5B324A00000000FD
:10266C001B5B303B304800002E2C2D7E3A3B3D212D
:10267C002A232440000000003000000030780000C5
:10268C00303132333435363738394142434445469C
:01269C00003D
:1026A000A40D0080640F0080640F0080640F008020
:1026B000640F0080640F0080640F0080640F00804E
:1026C000640F0080640F0080640F0080640F00803E
:1026D000640F0080640F0080640F0080640F00802E
:1026E000640F0080640F0080640F0080640F00801E
:1026F000640F0080640F0080640F0080640F00800E
:10270000640F0080640F0080640F0080640F0080FD
:10271000640F0080640F0080640F0080640F0080ED
:10272000640F0080640F0080640F0080640F0080DD
:10273000640F0080640F0080640F0080640F0080CD
:10274000640F0080640F0080640F0080640F0080BD
:10275000640F0080640F0080640F0080640F0080AD
:10276000640F0080640F0080640F0080640F00809D
:10277000640F0080640F0080640F0080640F00808D
:10278000640F0080640F0080640F0080640F00807D
:10279000640F0080640F0080640F0080640F00806D
:1027A000640F0080640F0080880F0080640F008039
:1027B00068110080640F0080640F0080640F008047
:1027C000640F0080640F0080640F0080640F00803D
:1027D000640F0080640F008074110080FC0F008083
:1027E000640F0080640F008028110080640F008057
:1027F000640F008080110080640F0080640F0080EF
:102800008C110080640F008044130080640F0080EE
:10281000640F0080640F0080640F0080640F0080EC
:10282000640F0080640F0080880F008038120080E1
:1028300068110080640F008098110080640F008090
:10284000640F0080640F0080640F0080640F0080BC
:10285000880F0080640F008074110080FC0F0080DE
:10286000B8110080640F008028110080E4110080FE
:10287000640F008080110080640F0080640F00806E
:1028800050130080640F00805C13008030313233BD
:10289000343536373839616263646566000000009C
:1028A00030313233343536373839616263646566C6
:1028B0003031323334353637383941424344454676
:0128C0000017
:0428C40000002041AF
:04370000E1AC000038
:040000058000000077
:00000001FF
